:020000040800F2
:1000000000000120C5200008ED1E0008F51E0008B4
:10001000FD1E0008051F00080D1F0008000000005D
:10002000000000000000000000000000151F000894
:10003000231F000800000000311F00083F1F0008B8
:1000400015210008152100081521000815210008B8
:1000500015210008152100081521000815210008A8
:100060001521000815210008152100081521000898
:100070001521000815210008152100081521000888
:1000800015210008152100081521000800000000B6
:100090000000000000000000000000001521000822
:1000A0001521000815210008152100081521000858
:1000B0001521000815210008152100081521000848
:1000C0001521000815210008152100081521000838
:1000D0001521000815210008152100080000000066
:1000E0001521000815210008152100080000000056
:1000F00000000000000000000000000015210008C2
:100100000000000015210008152100081521000835
:1001100000000000000000000000000000000000DF
:1001200015210008152100081521000815210008D7
:100130001521000800000000000000000000000081
:100140000000000000000000000000001521000871
:1001500015210008152100081521000815210008A7
:100160001521000815210008000000000000000013
:10017000000000000000000000000000000000007F
:100180000000000015210008000000000000000031
:04019000152100082D
:1001A00010B5054C237833B9044B13B10448AFF3B1
:1001B00000800123237010BDDC010020000000003E
:1001C0003C8C000808B5034B1BB103490348AFF34F
:1001D000008008BD00000000E00100203C8C000809
:1001E00001F0FF01102A2BDB10F0070F08D010F8E8
:1001F000013B013A8B422DD010F0070F42B3F6D1EC
:10020000F0B441EA012141EA014122F007047FF004
:1002100000070023F0E80256083C85EA010586EA5B
:10022000010685FA47F5A3FA87F586FA47F6A5FA97
:1002300087F68EB9EED1F0BC01F0FF0102F00702A3
:1002400032B110F8013B013A83EA010313B1F8D14E
:100250000020704701387047002D06BF354603382F
:10026000073815F0010F07D1013015F4807F02BF68
:10027000013015F4C03F0130F0BC0138704700BFB9
:10028000034613F8012B002AFBD1181A01387047D6
:1002900081F0004102E000BF83F0004330B54FEA37
:1002A00041044FEA430594EA050F08BF90EA020FA4
:1002B0001FBF54EA000C55EA020C7FEA645C7FEA37
:1002C000655C00F0E2804FEA5454D4EB5555B8BF5A
:1002D0006D420CDD2C4480EA020281EA030382EACB
:1002E000000083EA010180EA020281EA0303362D5D
:1002F00088BF30BD11F0004F4FEA01314FF4801C30
:100300004CEA113102D0404261EB410113F0004F41
:100310004FEA03334CEA133302D0524263EB4303F8
:1003200094EA050F00F0A780A4F10104D5F1200E96
:100330000DDB02FA0EFC22FA05F2801841F10001F1
:1003400003FA0EF2801843FA05F359410EE0A5F1C5
:1003500020050EF1200E012A03FA0EFC28BF4CF0F6
:10036000020C43FA05F3C01851EBE37101F00045AC
:1003700007D54FF0000EDCF1000C7EEB00006EEBB9
:100380000101B1F5801F1BD3B1F5001F0CD3490843
:100390005FEA30004FEA3C0C04F101044FEA44529A
:1003A00012F5800F80F09A80BCF1004F08BF5FEA21
:1003B000500C50F1000041EB045141EA050130BD01
:1003C0005FEA4C0C404141EB0101013C28BFB1F513
:1003D000801FE9D291F0000F04BF01460020B1FA5E
:1003E00081F308BF2033A3F10B03B3F120020CDA31
:1003F0000C3208DD02F1140CC2F10C0201FA0CF00F
:1004000021FA02F10CE002F11402D8BFC2F1200C73
:1004100001FA02F120FA0CFCDCBF41EA0C01904029
:10042000E41AA2BF01EB0451294330BD6FEA040472
:100430001F3C1CDA0C340EDC04F11404C4F120025D
:1004400020FA04F001FA02F340EA030021FA04F36F
:1004500045EA030130BDC4F10C04C4F1200220FAC6
:1004600002F001FA04F340EA0300294630BD21FA04
:1004700004F0294630BD94F0000F83F4801306BFCA
:1004800081F480110134013D4EE77FEA645C18BFBE
:100490007FEA655C29D094EA050F08BF90EA020F55
:1004A00005D054EA000C04BF1946104630BD91EA4D
:1004B000030F1EBF0021002030BD5FEA545C05D150
:1004C0004000494128BF41F0004130BD14F580048F
:1004D0003CBF01F5801130BD01F0004545F0FE4103
:1004E00041F470014FF0000030BD7FEA645C1ABF38
:1004F000194610467FEA655C1CBF0B46024650EA6F
:10050000013406BF52EA033591EA030F41F400219A
:1005100030BD00BF90F0000F04BF0021704730B520
:100520004FF4806404F132044FF000054FF00001F5
:1005300050E700BF90F0000F04BF0021704730B5B6
:100540004FF4806404F1320410F0004548BF40428B
:100550004FF000013EE700BF42004FEAE2014FEAE0
:1005600031014FEA02701FBF12F07F4393F07F4FBB
:1005700081F06051704732F07F4208BF704793F0BE
:100580007F4F04BF41F40021704730B54FF46074D1
:1005900001F0004521F000411CE700BF50EA0102D4
:1005A00008BF704730B54FF000050AE050EA01027D
:1005B00008BF704730B511F0004502D5404261EBED
:1005C00041014FF4806404F132045FEA915C3FF42E
:1005D000D8AE4FF003025FEADC0C18BF03325FEACB
:1005E000DC0C18BF033202EBDC02C2F1200300FA7C
:1005F00003FC20FA02F001FA03FE40EA0E0021FAA1
:1006000002F11444BDE600BF70B54FF0FF0C4CF48E
:10061000E06C1CEA11541DBF1CEA135594EA0C0F40
:1006200095EA0C0F00F0DEF82C4481EA030621EA7B
:100630004C5123EA4C5350EA013518BF52EA0335B6
:1006400041F4801143F4801338D0A0FB02CE4FF068
:100650000005E1FB02E506F00042E0FB03E54FF098
:100660000006E1FB03569CF0000F18BF4EF0010E90
:10067000A4F1FF04B6F5007F64F5407404D25FEA8C
:100680004E0E6D4146EB060642EAC62141EA55513F
:100690004FEAC52040EA5E504FEACE2EB4F1FD0C81
:1006A00088BFBCF5E06F1ED8BEF1004F08BF5FEAFF
:1006B000500E50F1000041EB045170BD06F00046B1
:1006C00046EA010140EA020081EA0301B4EB5C045E
:1006D000C2BFD4EB0C0541EA045170BD41F4801156
:1006E0004FF0000E013C00F3AB8014F1360FDEBF7B
:1006F000002001F0004170BDC4F10004203C35DA57
:100700000C341BDC04F11404C4F1200500FA05F3D9
:1007100020FA04F001FA05F240EA020001F000427A
:1007200021F0004110EBD37021FA04F642EB0601F0
:100730005EEA430E08BF20EAD37070BDC4F10C041A
:10074000C4F1200500FA04F320FA05F001FA04F2DE
:1007500040EA020001F0004110EBD37041F10001CA
:100760005EEA430E08BF20EAD37070BDC4F12005D5
:1007700000FA05F24EEA020E20FA04F301FA05F23D
:1007800043EA020321FA04F001F0004121FA04F2E5
:1007900020EA020000EBD3705EEA430E08BF20EAB5
:1007A000D37070BD94F0000F0FD101F000464000EF
:1007B00041EB010111F4801F08BF013CF7D041EA71
:1007C000060195F0000F18BF704703F00046520075
:1007D00043EB030313F4801F08BF013DF7D043EA46
:1007E0000603704794EA0C0F0CEA135518BF95EAFC
:1007F0000C0F0CD050EA410618BF52EA4306D1D183
:1008000081EA030101F000414FF0000070BD50EAA1
:10081000410606BF1046194652EA430619D094EA2B
:100820000C0F02D150EA013613D195EA0C0F05D115
:1008300052EA03361CBF104619460AD181EA030169
:1008400001F0004141F0FE4141F470014FF0000021
:1008500070BD41F0FE4141F4780170BD70B54FF0BC
:10086000FF0C4CF4E06C1CEA11541DBF1CEA13553C
:1008700094EA0C0F95EA0C0F00F0A7F8A4EB05041E
:1008800081EA030E52EA03354FEA013100F0888015
:100890004FEA03334FF0805545EA131343EA1263DE
:1008A0004FEA022245EA111545EA10654FEA002693
:1008B0000EF000419D4208BF964244F1FD0404F54C
:1008C000407402D25B084FEA3202B61A65EB0305A8
:1008D0005B084FEA32024FF480104FF4002CB6EB65
:1008E000020E75EB030E22BFB61A754640EA0C00E5
:1008F0005B084FEA3202B6EB020E75EB030E22BF25
:10090000B61A754640EA5C005B084FEA3202B6EB65
:10091000020E75EB030E22BFB61A754640EA9C0024
:100920005B084FEA3202B6EB020E75EB030E22BFF4
:10093000B61A754640EADC0055EA060E18D04FEAB2
:10094000051545EA16754FEA06164FEAC30343EA52
:1009500052734FEAC2025FEA1C1CC0D111F4801F1F
:100960000BD141EA00014FF000004FF0004CB6E718
:1009700011F4801F04BF01430020B4F1FD0C88BFB7
:10098000BCF5E06F3FF6AFAEB5EB030C04BFB6EBC2
:10099000020C5FEA500C50F1000041EB045170BDB5
:1009A0000EF0004E4EEA113114EB5C04C2BFD4EBE2
:1009B0000C0541EA045170BD41F480114FF0000E66
:1009C000013C90E645EA060E8DE60CEA135594EAE2
:1009D0000C0F08BF95EA0C0F3FF43BAF94EA0C0FE5
:1009E0000AD150EA01347FF434AF95EA0C0F7FF45A
:1009F00025AF104619462CE795EA0C0F06D152EAAE
:100A000003353FF4FDAE1046194622E750EA410691
:100A100018BF52EA43067FF4C5AE50EA41047FF4A2
:100A20000DAF52EA43057FF4EBAE12E74FF0FF3C07
:100A300006E000BF4FF0010C02E000BF4FF0010CD8
:100A40004DF804CD4FEA410C7FEA6C5C4FEA430C51
:100A500018BF7FEA6C5C1BD001B050EA410C0CBFA0
:100A600052EA430C91EA030F02BF90EA020F002002
:100A7000704710F1000F91EA030F58BF994208BF69
:100A800090422CBFD8176FEAE37040F00100704726
:100A90004FEA410C7FEA6C5C02D150EA013C07D17D
:100AA0004FEA430C7FEA6C5CD6D152EA033CD3D0C8
:100AB0005DF8040B704700BF8446104662468C46C2
:100AC0001946634600E000BF01B5FFF7B7FF0028F5
:100AD00048BF10F1000F01BD4DF808EDFFF7F4FF1E
:100AE0000CBF012000205DF808FB00BF4DF808EDA9
:100AF000FFF7EAFF34BF012000205DF808FB00BFCC
:100B00004DF808EDFFF7E0FF94BF012000205DF8ED
:100B100008FB00BF4DF808EDFFF7CEFF94BF0120A2
:100B200000205DF808FB00BF4DF808EDFFF7C4FF9B
:100B300034BF012000205DF808FB00BF4FEA410CE4
:100B40007FEA6C5C02D150EA013C0AD14FEA430CC7
:100B50007FEA6C5C02D152EA033C02D14FF0000004
:100B600070474FF0010070474FEA410212F5001242
:100B700015D211D56FF47873B3EB625212D94FEAE4
:100B8000C12343F0004343EA505311F0004F23FACE
:100B900002F018BF404270474FF00000704750EA23
:100BA000013005D111F0004008BF6FF000407047E0
:100BB0004FF00000704700BF4A0011D212F500123A
:100BC00011D20DD56FF47873B3EB62520ED44FEAA5
:100BD000C12343F0004343EA505323FA02F0704725
:100BE0004FF00000704750EA013002D14FF0FF3063
:100BF00070474FF0000070474FEA4102B2F1E04306
:100C000024BFB3F5001CDCF1FE5C0DD901F0004CF3
:100C10004FEAC0024CEA5070B2F1004F40EB830043
:100C200008BF20F00100704711F0804F21D113F16F
:100C30003872BCBF01F00040704741F480114FEAA8
:100C40005252C2F11802C2F1200C10FA0CF320FA31
:100C500002F018BF40F001004FEAC1234FEAD3234E
:100C600003FA0CFC40EA0C0023FA02F34FEA4303B8
:100C7000CCE77FEA625307D150EA01331EBF4FF041
:100C8000FE4040F44000704701F0004040F0FE405C
:100C900040F40000704700BF53B94AB9002908BFAB
:100CA00000281CBF4FF0FF314FF0FF3000F0A0B91B
:100CB000ADF1080C6DE904CE00F03CF8DDF804E07D
:100CC000DDE9022304B0704738B500220023044652
:100CD0000D46FFF70BFF28B920462946BDE83840EE
:100CE00000F00AB8204605F1004100F005F8404246
:100CF00061EB410138BD00BFD0B50C4B0022064668
:100D00000F46FFF781FCFFF757FF0446FFF702FC91
:100D1000074B0022FFF778FC02460B463046394667
:100D2000FFF7BAFAFFF748FF2146D0BD0000F03DBB
:100D30000000F0412DE9F047089D0C46002B4ED1F4
:100D400094468C458646B2FA82F262D94AB1C2F123
:100D50002003914020FA03F30CFA02FC194300FA35
:100D600002FE4FEA1C471FFA8CF6B1FBF7F44FEA7C
:100D70001E4307FB141143EA014304FB06F19942A9
:100D80000AD91CEB030304F1FF3080F01281994271
:100D900040F20F81023C6344591A1FFA8EF3B1FBF3
:100DA000F7F007FB101143EA014300FB06F69E42F1
:100DB0000AD91CEB030300F1FF3180F0FC809E4256
:100DC00040F2F980634402389B1B40EA0440002152
:100DD0001DB1D3400022C5E90032BDE8F0878B4247
:100DE00005D90DB1C5E9000100210846F5E7B3FAC0
:100DF00083F1002946D1A34202D39042C0F0F08093
:100E0000861A64EB03030120002DE6D0C5E90063D8
:100E1000E3E7002A40F09080A1EB0C044FEA1C4865
:100E20001FFA8CF70121B4FBF8F64FEA1E4308FBCA
:100E3000164443EA044307FB06F0984208D91CEB2A
:100E4000030306F1FF3402D2984200F2CD80264619
:100E50001C1A1FFA8EF3B4FBF8F008FB104443EAA7
:100E6000044300FB07F79F4208D91CEB030300F182
:100E7000FF3402D29F4200F2B0802046DB1B40EAE2
:100E80000640A5E7C1F120068B4022FA06F71F4372
:100E900020FA06FC04FA01F343EA0C03F44000FADA
:100EA00001F8380C4FEA1349B4FBF0FE1FFA87FC37
:100EB00000FB1E4449EA04440EFB0CF9A14502FA6A
:100EC00001F20AD93C190EF1FF3A80F08480A14565
:100ED00040F28180AEF1020E3C44A4EB09041FFAFB
:100EE00083F9B4FBF0F300FB134449EA044403FB29
:100EF0000CFCA44507D93C1903F1FF3067D2A44587
:100F000065D9023B3C4443EA0E40A0FB0293A4EBAC
:100F10000C049C42CE469C4651D34ED055B1B8EB02
:100F20000E0364EB0C0404FA06F6CB401E43CC40DF
:100F3000C5E90064002150E7C2F1200320FA03F163
:100F40000CFA02FC24FA03F394400C434FEA1C48C9
:100F500000FA02FE1FFA8CF7B3FBF8F008FB103121
:100F6000230C43EA014300FB07F1994208D91CEB2B
:100F7000030300F1FF362CD299422AD90238634488
:100F80005B1AA4B2B3FBF8F108FB113344EA034443
:100F900001FB07F3A34208D91CEB040401F1FF365F
:100FA00013D2A34211D902396444E41A41EA004140
:100FB00039E70446F0E6084606E7C845AED2B9EB85
:100FC000020E63EB070C0138A8E73146EDE7034654
:100FD00099E73046D4E7D6467FE7634402384DE7C9
:100FE0000646234608460FE7023E634430E700BF4B
:100FF000704700BF80B584B000AFF860B9607A6018
:101000007B689AB24FF0FF33B968044802F02CFEB7
:101010007B6818461037BD4680BD00BFF801002030
:1010200080B582B000AF124804F008F90123FB71CB
:1010300013E0FB799BB25B0099B20A2301220D48B1
:1010400001F0E0FD0346002B04D1FB7919460A4864
:1010500004F0F4F8FB790133FB7197F90730002BAA
:10106000E7DA064804F0EAF800BF0837BD4680BD5D
:10107000588C000840020020708C00088C8C0008FE
:1010800080B58CB00AAF01F047F800F067F900F0C6
:101090002BFA00F0D1F900F0FDF9FFF7C1FF0022B3
:1010A0004021964801F038FB0A2001F0A7F8012200
:1010B0004021924801F030FB0A2001F09FF800F037
:1010C000DFFA0346002B0AD14FF400518C4801F09F
:1010D0003CFB4FF4FA7001F091F800BFF4E7894847
:1010E00004F014F90021002000F02CFC01228649B4
:1010F000864800F0BBFC1E21002000F023FC0122EA
:101100008149834800F0B2FC00F05EFB4FF4FA60C6
:1011100001F074F800F0D0FC7E4B08937E4B0793EF
:101120007E4B06937E4B05937E4B04937E4B03933D
:101130007E4B02937E4B01937E4B00937E4B7F4A06
:101140007F490C2000F0C6FC724B0893724B07934A
:10115000724B0693724B0593724B0493724B03933D
:10116000724B0293724B0193724B0093724B734A12
:1011700073490C2000F0AEFC664B0893664B079356
:10118000664B0693664B0593664B0493664B03933D
:10119000664B0293664B0193664B0093664B674A1E
:1011A00067490C2000F096FC5A4B08935A4B079362
:1011B0005A4B06935A4B05935A4B04935A4B03933D
:1011C0005A4B02935A4B01935A4B00935A4B5B4A2A
:1011D0005B490C2000F07EFC4E4B08934E4B07936E
:1011E0004E4B06934E4B05934E4B04934E4B03933D
:1011F0004E4B02934E4B01934E4B00934E4B4F4A36
:101200004F490C2000F066FC0021002000F09AFB02
:1012100001223D494B4800F029FC0021002000F04C
:1012200091FB012238493A4800F020FC00F0CCFA4A
:101230004FF4FA6000F0E2FF052000F077FC00F0C8
:101240003BFC0021002000F07DFB01222E493E489E
:1012500000F00CFC1E210A2000F074FB01222A4938
:101260002B4800F003FC00F0AFFA4FF4FA6000F0F6
:10127000C5FF00F021FC0023FB7121E0FB7919463A
:10128000324800F0A9FC4FF47A7000F0B7FFFA7909
:1012900013465B00134419462D4800F09DFC4FF4A3
:1012A0007A7000F0ABFFFB799B001946294800F0EB
:1012B00093FC4FF47A7000F0A1FFFB790133FB71CE
:1012C000FB79042BDAD900F0F7FB0021002000F0B5
:1012D00039FB01220C49204800F0C8FB1E210A20DE
:1012E00000F030FB01220849094800F0BFFB00F084
:1012F0006BFA4FF4FA6000F081FFF0E60000024064
:1013000000080240A08C000800000020BC8C0008EF
:10131000C08C000870C6000870C2000870BE0008CB
:1013200070BA000870B6000870B2000870AE00080D
:1013300070AA000870A6000870A20008709E00083D
:10134000709A0008C88C0008D08C0008D88C00085F
:10135000E48C0008F08C0008FC8C000880B594B088
:1013600000AF07F1200330220021184604F022F9D3
:1013700007F10C0300221A605A609A60DA601A6161
:101380000023BB602A4B1B6C294A43F08053136433
:10139000274B1B6C03F08053BB60BB6800237B6052
:1013A000244B1B6823F44043224A43F40043136058
:1013B000204B1B6803F440437B607B6803233B6244
:1013C0004FF480337B620123FB6210233B630223D3
:1013D000BB634FF48003FB630F233B6490237B6468
:1013E0000223BB640523FB6407F12003184601F0C8
:1013F00093FF0346002B01D000F0CAF80F23FB60D7
:1014000000233B6100237B610023BB610023FB6160
:1014100007F10C030021184602F0F6F90346002BF1
:1014200001D000F0B5F800BF5037BD4680BD00BF09
:10143000003802400070004080B500AF124B134AE4
:101440001A60114B124A5A600F4B00229A600E4BE1
:101450000022DA600C4B4FF480421A610A4B0022E2
:101460005A61094B00229A61074B0022DA61064B50
:1014700000221A62044801F083F90346002B01D0D0
:1014800000F086F800BF80BD4002002000540040FC
:10149000801A060080B500AF114B124A1A60104B3B
:1014A0004FF416525A600E4B00229A600C4B0022E9
:1014B000DA600B4B00221A61094B0C225A61084B6F
:1014C00000229A61064B0022DA61054802F07CFB9B
:1014D0000346002B01D000F05BF800BF80BD00BFC9
:1014E000F80100200044004080B588B000AF002320
:1014F000BB60244B1B6B234A43F004031363214B53
:101500001B6B03F00403BB60BB6800237B601D4BB7
:101510001B6B1C4A43F0010313631A4B1B6B03F054
:1015200001037B607B6807F10C0300221A605A609C
:101530009A60DA601A614FF40053FB6001233B614B
:1015400000237B610023BB6107F10C0319460E48A1
:1015500000F05EFF002240210C4801F0DDF840233E
:10156000FB6001233B6100237B610023BB6107F12A
:101570000C031946054800F04BFF00BF2037BD465D
:1015800080BD00BF00380240000802400000024059
:1015900080B500AF72B600BF0121044801F0D5F854
:1015A000C82000F02BFE00BFF6E700BF0004024099
:1015B00080B586B000AFBA601A460346FB810B4681
:1015C000BB811346FB80B7F906300733002B00DAE6
:1015D0000733DB103B820023FB750023BB8244E012
:1015E00000237B822FE07B8A03F00703002B03D0CC
:1015F000FB7D5B00FB7512E0B7F91430B7F91020E2
:1016000003FB02F2B7F91230002B00DA0733DB10CC
:101610001BB213441A46BB6813441B78FB7597F939
:101620001730002B09DAFA897B8A13449BB2B989F7
:10163000BA8CD2B2184600F01BF9B7F912309BB23F
:1016400001339BB27B82B7F91220B7F906309A4278
:10165000C9DBB7F914309BB201339BB2BB82B7F937
:101660000C309BB201339BB2BB81B7F91420B7F9A0
:1016700020309A42B4DB00BF00BF1837BD4680BDA2
:1016800080B582B000AF00F0DFFA44F6206301229B
:1016900078214A4801F0B6FA0346002B01D0002316
:1016A00087E040F6C4137B6002E07B68013B7B600F
:1016B0007B68002BF9D1AE220021782000F040FB9E
:1016C000D5220021782000F03BFB802200217820E9
:1016D00000F036FBA8220021782000F031FB3F22E9
:1016E0000021782000F02CFBD3220021782000F08C
:1016F00027FB00220021782000F022FB402200215D
:10170000782000F01DFB8D220021782000F018FBCE
:1017100014220021782000F013FB202200217820E1
:1017200000F00EFB00220021782000F009FBA1222E
:101730000021782000F004FBC8220021782000F06E
:10174000FFFADA220021782000F0FAFA12220021B2
:10175000782000F0F5FA81220021782000F0F0FADC
:101760007F220021782000F0EBFAA42200217820CB
:1017700000F0E6FAA6220021782000F0E1FAAF227C
:101780000021782000F0DCFA002000F04FF84FF440
:101790008262FF210A4803F00DFF00F015F8094BA3
:1017A00000221A80074B00225A80064B01225A71F0
:1017B000012318460837BD4680BD00BF4002002007
:1017C00094020020A406002080B582B000AF002360
:1017D000FB7121E0FB79503BDBB21A4600217820F7
:1017E00000F0AEFA00220021782000F0A9FA1022C1
:1017F0000021782000F0A4FAFA7913469B011344E3
:101800005B001A46084B1A4482234021782000F0DE
:1018100031FAFB790133FB71FB79072BDAD900BF71
:1018200000BF0837BD4680BD9402002080B485B05B
:1018300000AF0346FB710023FB810BE0FB79002B1B
:1018400001D1002100E0FF21FB89084AD154FB8926
:101850000133FB81FB89B3F5826FEFD300BF00BF7B
:101860001437BD465DF8047B704700BF940200202A
:1018700090B482B000AF0346FB800B46BB8013469A
:10188000FB70FB88812B54D8BB883F2B51D82B4B46
:101890001B79002B06D0FB78002B0CBF0123002303
:1018A000DBB2FB70FB78012B20D1FA88BB88DB0808
:1018B00098B201460B469B010B445B001344204A3F
:1018C000D35C5AB2BB8803F00703012101FA03F38A
:1018D0005BB213435CB2FA8801460B469B010B4492
:1018E0005B001344E1B2164AD15423E0FA88BB8866
:1018F000DB0898B201460B469B010B445B00134486
:101900000F4AD35C5AB2BB8803F00703012101FAE6
:1019100003F35BB2DB435BB213405CB2FA8801466F
:101920000B469B010B445B001344E1B2044AD154C3
:1019300000E000BF0837BD4690BC7047A4060020F9
:101940009402002080B483B000AF03460A46FB80B7
:101950001346BB80054AFB881380044ABB8853802A
:1019600000BF0C37BD465DF8047B7047A40600201D
:1019700080B586B000AF03463960FB711346BB717A
:10198000394B1B881A463B681B781344812B07DCB4
:10199000354B5B881A463B685B7813443F2B01DD6F
:1019A00000235DE000237B614BE03B685A68FB79D4
:1019B000203B3968497801FB03F319467B690B44E6
:1019C0005B0013441B88FB6000233B6130E0FA6836
:1019D0003B6902FA03F303F40043002B10D0224BBF
:1019E0001A883B699BB2134498B21F4B5A887B6993
:1019F0009BB213449BB2BA791946FFF739FF14E042
:101A0000194B1A883B699BB2134498B2164B5A88FB
:101A10007B699BB2134499B2BB79002B0CBF0123A5
:101A20000023DBB21A46FFF723FF3B6901333B611A
:101A30003B681B781A463B699342C8D37B690133E4
:101A40007B613B685B781A467B699342ADD3064B5A
:101A50001B883A68127813449AB2034B1A80FB79B8
:101A600018461837BD4680BDA406002080B584B056
:101A700000AFF860B9601346FB7112E0FB681B7899
:101A8000FA79B9681846FFF773FF03461A46FB68F0
:101A90001B789A4202D0FB681B7808E0FB68013390
:101AA000FB60FB681B78002BE8D1FB681B781846AD
:101AB0001037BD4680BD000080B500AF4FF4826294
:101AC0000021034803F076FDFFF77EFE00BF80BDD6
:101AD000940200200FB480B584B002AF07F1140364
:101AE0003B60FFF7E9FF00237B6013E03B681A1DB2
:101AF0003A601A6801230193402300938023002158
:101B00000020FFF755FDFFF75FFEFFF7D5FF7B686D
:101B100001337B603B7C7A689A42E7DB00BF00BF01
:101B20000837BD46BDE8804004B0704780B586B038
:101B300000AF0346FB710023FB75FFF7BDFF25E0F7
:101B4000FB7D07F10C00214A0A2103F0E7FBFFF7B8
:101B5000B3FF00212020FFF7F5FE01221C491D489C
:101B6000FFF784FF10214020FFF7ECFE07F10C0384
:101B7000012217491846FFF779FFFFF725FE4FF4BA
:101B80007A7000F03BFBFB7D0133FB75FA7DFB793E
:101B90009A42D5D9FFF790FF00212020FFF7D2FE0F
:101BA00001220B490B48FFF761FF10214020FFF78E
:101BB000C9FE07F10C03012205491846FFF756FF3D
:101BC000FFF702FE00BF1837BD4680BD088D000834
:101BD000000000200C8D00080FB480B586B000AF67
:101BE00000233B7107F124033B603B1D3A68396ACF
:101BF000184603F041FC124B1B78282B04D9FFF741
:101C00005BFF0F4B00221A700D4B1B78194600200A
:101C1000FFF798FE3B1D01220A491846FFF726FFF1
:101C2000074B1B781433DAB2054B1A70FFF7CCFD63
:101C300000BF1837BD46BDE8804004B0704700BF04
:101C4000AA0600200000002080B483B000AF084B3B
:101C50007B6002E07B68013B7B607B68002BF9D1F5
:101C600000BF00BF0C37BD465DF8047B704700BF66
:101C700090D0030090B5C7B002AF0446084607F500
:101C80008871A1F588710A60194607F58873A3F277
:101C9000091322461A7007F58873A3F58573024667
:101CA0001A7007F58873A3F586730A461A8007F53C
:101CB0008873A3F5827307F58872A2F5857212788E
:101CC0001A70002387F80F3115E097F80F3107F5E8
:101CD0008872A2F5887212681A4497F80F3101339E
:101CE000117807F58872A2F58272D15497F80F31F6
:101CF000013387F80F3197F80F319BB207F58872DF
:101D0000A2F5867212889A42DFD807F58873A3F28B
:101D100009131B7899B207F58873A3F586731B889E
:101D200001339BB207F10C020A200090034800F037
:101D30006BFE00BF07F58A77BD4690BD40020020CC
:101D400080B586B002AF0346FB710B46BB711346EC
:101D50007B71BB793B737B797B73FB7999B207F11C
:101D60000C020A2300930223034800F04DFE00BF3B
:101D70001037BD4680BD00BF4002002080B483B054
:101D800000AF00237B60104B5B6C0F4A43F4804331
:101D900053640D4B5B6C03F480437B607B680023D2
:101DA0003B60094B1B6C084A43F080531364064B9D
:101DB0001B6C03F080533B603B6800BF0C37BD4693
:101DC0005DF8047B704700BF0038024080B58AB0E0
:101DD00000AF786007F1140300221A605A609A601D
:101DE000DA601A617B681B68194A93422BD1002381
:101DF0003B61184B1B6B174A43F002031363154BEF
:101E00001B6B03F002033B613B69C0237B61122320
:101E1000BB610023FB6103233B6204237B6207F168
:101E2000140319460C4800F0F3FA0023FB60094B39
:101E30001B6C084A43F400131364064B1B6C03F439
:101E40000013FB60FB6800BF2837BD4680BD00BFA4
:101E500000540040003802400004024080B58AB0BF
:101E600000AF786007F1140300221A605A609A608C
:101E7000DA601A617B681B68194A93422BD10023F0
:101E80003B61184B1B6C174A43F400331364154B2A
:101E90001B6C03F400333B613B690023FB60114B77
:101EA0001B6B104A43F0010313630E4B1B6B03F0D3
:101EB0000103FB60FB680C237B610223BB610023F1
:101EC000FB6103233B6207237B6207F1140319467E
:101ED000054800F09DFA00BF2837BD4680BD00BF11
:101EE00000440040003802400000024080B400AFCF
:101EF00000BFFDE780B400AF00BFFDE780B400AFD6
:101F000000BFFDE780B400AF00BFFDE780B400AFC5
:101F100000BFFDE780B400AF00BFBD465DF8047BA5
:101F2000704780B400AF00BFBD465DF8047B7047CA
:101F300080B400AF00BFBD465DF8047B704780B53C
:101F400000AF00F03BF900BF80BD80B400AF0123BB
:101F50001846BD465DF8047B704780B582B000AF7F
:101F60007860396003F078FB034616221A604FF060
:101F7000FF3318460837BD4680BD80B582B000AF3C
:101F800078604FF0FF317868FFF7E7FF00BFFDE7AB
:101F900080B586B000AFF860B9607A6000237B61DD
:101FA0000AE0AFF300800146BB685A1CBA60CAB2AF
:101FB0001A707B6901337B617A697B689A42F0DB36
:101FC0007B6818461837BD4680BD80B483B000AF2B
:101FD00078604FF0FF3318460C37BD465DF8047B40
:101FE000704780B483B000AF786039603B684FF4CD
:101FF00000525A60002318460C37BD465DF8047B3A
:10200000704780B483B000AF7860012318460C3766
:10201000BD465DF8047B704780B485B000AFF860C2
:10202000B9607A60002318461437BD465DF8047B1A
:102030007047000080B586B000AF7860144A154B39
:10204000D31A7B617B693B61134B1B68002B02D168
:10205000114B124A1A60104B1A687B6813443A6994
:102060009A4207D203F0F8FA03460C221A604FF0A6
:10207000FF3309E0084B1B68FB60074B1A687B685D
:102080001344054A1360FB6818461837BD4680BDE7
:102090000000012000040000AC0600200008002021
:1020A00080B400AF064BD3F88830054A43F4700380
:1020B000C2F8883000BFBD465DF8047B704700BFA2
:1020C00000ED00E0DFF834D0FFF7EAFF0C480D49DF
:1020D0000D4A002302E0D458C4500433C4188C4283
:1020E000F9D30A4A0A4C002301E013600432A242E9
:1020F000FBD303F0B7FAFEF7C3FF704700000120DF
:1021000000000020DC010020C8CE0008DC01002017
:1021100000080020FEE7000080B500AF0E4B1B68F2
:102120000D4A43F4007313600B4B1B680A4A43F4D7
:1021300080631360084B1B68074A43F48073136085
:10214000032000F031F90F2000F008F8FFF716FE29
:102150000023184680BD00BF003C024080B582B01D
:1021600000AF7860124B1A68124B1B7819464FF477
:102170007A73B3FBF1F3B2FBF3F3184600F03BF9CB
:102180000346002B01D001230EE07B680F2B0AD8F9
:10219000002279684FF0FF3000F011F9064A7B68A1
:1021A0001360002300E0012318460837BD4680BDB8
:1021B00008000020100000200C00002080B400AFB8
:1021C000064B1B781A46064B1B681344044A1360DF
:1021D00000BFBD465DF8047B704700BF10000020C3
:1021E000B006002080B400AF034B1B681846BD4604
:1021F0005DF8047B704700BFB006002080B584B056
:1022000000AF7860FFF7EEFFB8607B68FB60FB68AB
:10221000B3F1FF3F05D00A4B1B781A46FB68134405
:10222000FB6000BFFFF7DEFF0246BB68D31AFA6807
:102230009A42F7D800BF00BF1037BD4680BD00BF2F
:102240001000002080B485B000AF78607B6803F098
:102250000703FB600C4BDB68BB60BA684FF6FF03FB
:102260001340BB60FB681A02BB68134343F0BF63B3
:1022700043F40033BB60044ABB68D36000BF14372B
:10228000BD465DF8047B704700ED00E080B400AF10
:10229000044BDB681B0A03F007031846BD465DF8D4
:1022A000047B704700ED00E080B483B000AF0346CC
:1022B0003960FB7197F90730002B0ADB3B68DAB213
:1022C0000C4997F907301201D2B20B4483F800236E
:1022D0000AE03B68DAB20849FB7903F00F03043BDC
:1022E0001201D2B20B441A7600BF0C37BD465DF81E
:1022F000047B704700E100E000ED00E080B489B0AD
:1023000000AFF860B9607A60FB6803F00703FB6117
:10231000FB69C3F10703042B28BF0423BB61FB69DE
:102320000433062B02D9FB69033B00E000237B61E9
:102330004FF0FF32BB6902FA03F3DA43BB681A407D
:102340007B699A404FF0FF317B6901FA03F3D9436F
:102350007B680B40134318462437BD465DF8047B69
:102360007047000080B582B000AF78607B68013BA9
:10237000B3F1807F01D301230FE00A4A7B68013B60
:1023800053600F214FF0FF30FFF78EFF054B002207
:102390009A60044B07221A60002318460837BD468E
:1023A00080BD00BF10E000E080B582B000AF786073
:1023B0007868FFF747FF00BF0837BD4680BD80B58E
:1023C00086B000AF0346B9607A60FB7300237B617F
:1023D000FFF75CFF78617A68B9687869FFF78EFF6C
:1023E000024697F90F3011461846FFF75DFF00BF10
:1023F0001837BD4680BD80B582B000AF7860786880
:10240000FFF7B0FF034618460837BD4680BD000001
:1024100080B489B000AF7860396000237B6100230D
:102420003B610023BB610023FB6159E10122FB6991
:1024300002FA03F37B613B681B687A6913403B61D6
:102440003A697B699A4240F048813B685B6803F0D7
:102450000303012B05D03B685B6803F00303022BE9
:1024600030D17B689B68BB61FB695B00032202FA89
:1024700003F3DB43BA691340BB613B68DA68FB696D
:102480005B0002FA03F3BA691343BB617B68BA6964
:102490009A607B685B68BB610122FB6902FA03F307
:1024A000DB43BA691340BB613B685B681B0903F0FF
:1024B0000102FB6902FA03F3BA691343BB617B684B
:1024C000BA695A603B685B6803F00303032B17D0BB
:1024D0007B68DB68BB61FB695B00032202FA03F3E4
:1024E000DB43BA691340BB613B689A68FB695B00D8
:1024F00002FA03F3BA691343BB617B68BA69DA6015
:102500003B685B6803F00303022B23D1FB69DA0805
:102510007B68083253F82230BB61FB6903F0070384
:102520009B000F2202FA03F3DB43BA691340BB613D
:102530003B681A69FB6903F007039B0002FA03F387
:10254000BA691343BB61FB69DA087B680832B96971
:1025500043F822107B681B68BB61FB695B000322A8
:1025600002FA03F3DB43BA691340BB613B685B6863
:1025700003F00302FB695B0002FA03F3BA69134339
:10258000BB617B68BA691A603B685B6803F44033DF
:10259000002B00F0A2800023FB60574B5B6C564A77
:1025A00043F480435364544B5B6C03F48043FB60FF
:1025B000FB68524AFB699B08023352F82330BB6127
:1025C000FB6903F003039B000F2202FA03F3DB43D2
:1025D000BA691340BB617B68494A934219D07B6852
:1025E000484A934213D07B68474A93420DD07B6898
:1025F000464A934207D07B68454A934201D104235F
:1026000008E0072306E0032304E0022302E001239D
:1026100000E00023FA6902F0030292009340BA69D5
:102620001343BB613549FB699B080233BA6941F822
:102630002320384B9B68BB613B69DB43BA6913407D
:10264000BB613B685B6803F48013002B03D0BA695D
:102650003B691343BB612F4ABB6993602D4BDB6819
:10266000BB613B69DB43BA691340BB613B685B6894
:1026700003F40013002B03D0BA693B691343BB6119
:10268000244ABB69D360234B5B68BB613B69DB4376
:10269000BA691340BB613B685B6803F40033002BED
:1026A00003D0BA693B691343BB611A4ABB695360E3
:1026B000184B1B68BB613B69DB43BA691340BB61C4
:1026C0003B685B6803F48033002B03D0BA693B6935
:1026D0001343BB610F4ABB691360FB690133FB61A4
:1026E000FB690F2B7FF6A2AE00BF00BF2437BD46AB
:1026F0005DF8047B704700BF00380240003801409D
:10270000000002400004024000080240000C0240A9
:1027100000100240003C014080B483B000AF7860FC
:102720000B467B8013467B707B78002B03D07A8826
:102730007B689A6103E07B881A047B689A6100BF1A
:102740000C37BD465DF8047B704780B485B000AFA0
:1027500078600B467B807B685B69FB607A88FB68EE
:1027600013401A04FB68D9437B880B401A437B68EB
:102770009A6100BF1437BD465DF8047B70470000C6
:1027800080B584B000AF78607B68002B01D1012355
:102790002BE17B6893F83D30DBB2002B06D17B68E0
:1027A000002283F83C207868FFF710FB7B68242226
:1027B00083F83D207B681B681A687B681B6822F0E1
:1027C00001021A607B681B681A687B681B6842F408
:1027D00000421A607B681B681A687B681B6822F4D9
:1027E00000421A6001F0C8F9F8607B685B68814AB2
:1027F000934207D8FB68804A934294BF0123002389
:10280000DBB206E0FB687D4A934294BF01230023BC
:10281000DBB2002B01D00123E7E0FB68784AA2FB82
:1028200003239B0CBB607B681B685B6823F03F0144
:102830007B681B68BA680A435A607B681B681B6A1E
:1028400023F03F017B685B686A4A934202D8BB6809
:10285000013309E0BB684FF4967202FB03F3694A47
:10286000A2FB03239B0901337A6812680B431362AE
:102870007B681B68DB6923F44F4222F0FF027B6810
:102880005B685C498B4219D8FB68591E7B685B68A2
:102890005B00B1FBF3F3591C40F6FC730B40002BBB
:1028A0000AD0FB68591E7B685B685B00B1FBF3F3E1
:1028B0000133C3F30B0351E004234FE07B689B68B3
:1028C000002B11D1FB68581E7B6859680B465B00D2
:1028D0000B44B0FBF3F30133C3F30B03002B0CBF2A
:1028E00001230023DBB212E0FB68581E7B685968A5
:1028F0000B469B000B4499000B44B0FBF3F30133F0
:10290000C3F30B03002B0CBF01230023DBB2002B0E
:1029100001D0012322E07B689B68002B0ED1FB686D
:10292000581E7B6859680B465B000B44B0FBF3F301
:102930000133C3F30B0343F400430FE0FB68581E5D
:102940007B6859680B469B000B4499000B44B0FB15
:10295000F3F30133C3F30B0343F44043796809688D
:102960001343CB617B681B681B6823F0C0017B6845
:10297000DA697B681B6A1A437B681B680A431A6022
:102980007B681B689B6823F4034323F0FF037A688A
:1029900011697A68D26811437A6812680B439360B0
:1029A0007B681B68DB6823F0FF017B685A697B68E2
:1029B0009B691A437B681B680A43DA607B681B6863
:1029C0001A687B681B6842F001021A607B6800226B
:1029D0001A647B68202283F83D207B6800221A63FA
:1029E0007B68002283F83E20002318461037BD463E
:1029F00080BD00BFA08601007F841E00FF083D004F
:102A000083DE1B43D34D621080B588B002AFF860FF
:102A10007A601A460B467B8113463B81FFF7E2FB47
:102A20007861FB6893F83D30DBB2202B40F0E0800A
:102A30007B690093192301227049F86800F092FA2B
:102A40000346002B01D00223D3E0FB6893F83C300F
:102A5000012B01D10223CCE0FB68012283F83C204A
:102A6000FB681B681B6803F00103012B07D0FB68A0
:102A70001B681A68FB681B6842F001021A60FB6859
:102A80001B681A68FB681B6822F400621A60FB6806
:102A9000212283F83D20FB68102283F83E20FB684A
:102AA00000221A64FB687A685A62FB683A895A8580
:102AB000FB685B8D9AB2FB681A85FB68504ADA6244
:102AC00079897B693A6AF86800F0CAF90346002BF5
:102AD00001D001238DE000233B61FB681B685B692B
:102AE0003B61FB681B689B693B613B6966E07A69F7
:102AF000396AF86800F050FB0346002B0DD0FB68E4
:102B00001B6C042B07D1FB681B681A68FB681B68E9
:102B100042F400721A6001236BE0FB685B6A1A786A
:102B2000FB681B681A61FB685B6A5A1CFB685A6287
:102B3000FB685B8D9BB2013B9AB2FB685A85FB68D0
:102B40001B8D013B9AB2FB681A85FB681B685B69A9
:102B500003F00403042B1BD1FB681B8D002B17D043
:102B6000FB685B6A1A78FB681B681A61FB685B6A22
:102B70005A1CFB685A62FB685B8D9BB2013B9AB2A0
:102B8000FB685A85FB681B8D013B9AB2FB681A856E
:102B90007A69396AF86800F047FB0346002B0DD0CC
:102BA000FB681B6C042B07D1FB681B681A68FB6869
:102BB0001B6842F400721A6001231AE0FB681B8D47
:102BC000002B94D1FB681B681A68FB681B6842F4F1
:102BD00000721A60FB68202283F83D20FB68002207
:102BE00083F83E20FB68002283F83C20002300E0AD
:102BF000022318461837BD4680BD00BF02001000F2
:102C00000000FFFF80B58AB002AFF8607A603B60D9
:102C10000B467B81FFF7E6FAF8610023BB61FB6896
:102C200093F83D30DBB2202B40F01181FB6900931B
:102C3000192301228849F86800F094F90346002B13
:102C400001D0022304E1FB6893F83C30012B01D151
:102C50000223FDE0FB68012283F83C20FB681B682F
:102C60001B6803F00103012B07D0FB681B681A687F
:102C7000FB681B6842F001021A60FB681B681A6857
:102C8000FB681B6822F400621A60FB68242283F848
:102C90003D20FB6800221A64FB68704ADA62FB6818
:102CA0001B681A68FB681B6842F480721A60FB6933
:102CB00000933B6800224FF00111F86800F052F9D0
:102CC0000346002B0DD0FB681B681B6803F4807360
:102CD000B3F5807F03D1FB684FF400721A640323BD
:102CE000B6E07B89DBB21A46FB681B6802F0FE0285
:102CF0001A61FFF777FAF861FB681B685B6903F0FC
:102D00000203022B0CBF01230023DBB2FB75FB681F
:102D10001B685B6903F48063B3F5806F0CBF01230C
:102D20000023DBB2BB7525E0FFF75CFA0246FB69C6
:102D3000D31A3A689A4202D33B68002B03D1FB684E
:102D4000A02283F83D20FB681B685B6903F0020347
:102D5000022B0CBF01230023DBB2FB75FB681B6851
:102D60005B6903F48063B3F5806F0CBF012300231C
:102D7000DBB2BB75FB6893F83D30DBB2A02B05D00E
:102D8000FB7D002B02D1BB7D002BCDD0FB68202228
:102D900083F83D20FB681B685B6903F00203022B8C
:102DA00029D1FB681B681A68FB681B6842F4007233
:102DB0001A6000233B61FB681B685B693B61FB6831
:102DC0001B689B693B613B69FB69009319230122E6
:102DD0002149F86800F0C6F80346002B01D0012312
:102DE00036E0FB68202283F83D20FB68002283F850
:102DF0003C2000232CE0FB681B681A68FB681B68FA
:102E000042F400721A60FB681B686FF480625A61BA
:102E1000FB690093192301220F49F86800F0A2F81A
:102E20000346002B01D0012312E0BB690133BB61D3
:102E3000BA697B689A42FFF432AFFB68202283F8BC
:102E40003D20FB68002283F83C20012300E00223A0
:102E500018462037BD4680BD020010000000FFFF6D
:102E600080B588B002AFF8607A603B600B467B812A
:102E7000FB68DB6A7B617B69082B06D07B69012BD1
:102E800003D07B6913F5803F08D1FB681B681A6883
:102E9000FB681B6842F480721A600BE0FB681B6BD6
:102EA000122B07D1FB681B681A68FB681B6842F489
:102EB00080721A603B6800937B6800224FF001111A
:102EC000F86800F04FF80346002B0DD0FB681B6834
:102ED0001B6803F48073B3F5807F03D1FB684FF464
:102EE00000721A64032335E0FB681B69B3F5804F59
:102EF00008D17B89DBB21A46FB681B6802F0FE0230
:102F00001A611BE07B89DB11DBB203F00603DBB245
:102F100063F00F03DAB2FB681B681A613B687A68DA
:102F20000E49F86800F098F80346002B01D0012301
:102F300010E07B89DAB2FB681B681A613B687A682B
:102F40000749F86800F088F80346002B01D00123F8
:102F500000E0002318461837BD4680BD0800010078
:102F60000200010080B584B000AFF860B9603B603A
:102F70001346FB7148E03B68B3F1FF3F44D0FFF7D5
:102F800031F90246BB69D31A3A689A4202D33B68C8
:102F9000002B39D1BB681B0CDBB2012B0DD1FB68B8
:102FA0001B685B69DA43BB6813409BB2002B0CBF04
:102FB00001230023DBB21A460CE0FB681B689B6907
:102FC000DA43BB6813409BB2002B0CBF01230023E4
:102FD000DBB21A46FB799A4216D1FB6800221A63CB
:102FE000FB68202283F83D20FB68002283F83E2006
:102FF000FB681B6C43F02002FB681A64FB6800222C
:1030000083F83C20012323E0BB681B0CDBB2012BBF
:103010000DD1FB681B685B69DA43BB6813409BB248
:10302000002B0CBF01230023DBB21A460CE0FB6827
:103030001B689B69DA43BB6813409BB2002B0CBF33
:1030400001230023DBB21A46FB799A4293D0002376
:1030500018461037BD4680BD80B584B000AFF8601B
:10306000B9607A603B6071E0FB681B685B6903F4E0
:103070008063B3F5806F23D1FB681B681A68FB6817
:103080001B6842F400721A60FB681B686FF4806270
:103090005A61FB6800221A63FB68202283F83D20F6
:1030A000FB68002283F83E20FB681B6C43F004029F
:1030B000FB681A64FB68002283F83C20012367E068
:1030C0007B68B3F1FF3F41D0FFF78CF802463B68C5
:1030D000D31A7A689A4202D37B68002B36D1BB6838
:1030E0001B0CDBB2012B0CD1FB681B685B69DA435C
:1030F000BB6813409BB2002B14BF01230023DBB23B
:103100000BE0FB681B689B69DA43BB6813409BB20A
:10311000002B14BF01230023DBB2002B16D0FB6869
:1031200000221A63FB68202283F83D20FB680022FE
:1031300083F83E20FB681B6C43F02002FB681A6496
:10314000FB68002283F83C20012321E0BB681B0CB4
:10315000DBB2012B0CD1FB681B685B69DA43BB68EF
:1031600013409BB2002B14BF01230023DBB20BE002
:10317000FB681B689B69DA43BB6813409BB2002B5A
:1031800014BF01230023DBB2002B7FF46DAF0023BB
:1031900018461037BD4680BD80B584B000AFF860DA
:1031A000B9607A6034E0F86800F086F80346002BD6
:1031B00001D0012334E0BB68B3F1FF3F28D0FFF713
:1031C00011F802467B68D31ABA689A4202D3BB68E8
:1031D000002B1DD1FB681B685B6903F08003802B0B
:1031E00016D0FB6800221A63FB68202283F83D207A
:1031F000FB68002283F83E20FB681B6C43F0200232
:10320000FB681A64FB68002283F83C20012307E076
:10321000FB681B685B6903F08003802BC3D100232C
:1032200018461037BD4680BD80B584B000AFF86049
:10323000B9607A6034E0F86800F03EF80346002B8D
:1032400001D0012334E0BB68B3F1FF3F28D0FEF783
:10325000C9FF02467B68D31ABA689A4202D3BB6898
:10326000002B1DD1FB681B685B6903F00403042B72
:1032700016D0FB6800221A63FB68202283F83D20E9
:10328000FB68002283F83E20FB681B6C43F02002A1
:10329000FB681A64FB68002283F83C20012307E0E6
:1032A000FB681B685B6903F00403042BC3D1002394
:1032B00018461037BD4680BD80B483B000AF78603B
:1032C0007B681B685B6903F48063B3F5806F1BD177
:1032D0007B681B686FF480625A617B6800221A6306
:1032E0007B68202283F83D207B68002283F83E2003
:1032F0007B681B6C43F004027B681A647B680022C5
:1033000083F83C20012300E0002318460C37BD461B
:103310005DF8047B7047000080B586B000AF786030
:103320007B68002B01D1012367E27B681B6803F0F7
:103330000103002B75D0884B9B6803F00C03042B12
:103340000CD0854B9B6803F00C03082B12D1824BE9
:103350005B6803F48003B3F5800F0BD17E4B1B68D1
:1033600003F40033002B5BD07B685B68002B57D1E4
:10337000012342E27B685B68B3F5803F06D1764B60
:103380001B68754A43F4803313601DE07B685B68FB
:10339000B3F5A02F0CD1704B1B686F4A43F4802308
:1033A00013606D4B1B686C4A43F4803313600BE071
:1033B000694B1B68684A23F480331360664B1B68B3
:1033C000654A23F4802313607B685B68002B13D06D
:1033D000FEF708FF386108E0FEF704FF02463B698C
:1033E000D31A642B01D9032307E25B4B1B6803F458
:1033F0000033002BF0D014E0FEF7F4FE386108E053
:10340000FEF7F0FE02463B69D31A642B01D9032371
:10341000F3E1514B1B6803F40033002BF0D100E0C3
:1034200000BF7B681B6803F00203002B63D04A4B8C
:103430009B6803F00C03002B0BD0474B9B6803F0F9
:103440000C03082B1CD1444B5B6803F48003002B56
:1034500016D1414B1B6803F00203002B05D07B689B
:10346000DB68012B01D00123C7E13B4B1B6823F034
:10347000F8027B681B69DB00374913430B603AE0B5
:103480007B68DB68002B20D0344B01221A60FEF7EA
:10349000A9FE386108E0FEF7A5FE02463B69D31A93
:1034A000022B01D90323A8E12B4B1B6803F0020375
:1034B000002BF0D0284B1B6823F0F8027B681B69B7
:1034C000DB00254913430B6015E0244B00221A60F2
:1034D000FEF788FE386108E0FEF784FE02463B698D
:1034E000D31A022B01D9032387E11B4B1B6803F07E
:1034F0000203002BF0D17B681B6803F00803002B4C
:1035000036D07B685B69002B16D0154B01221A6000
:10351000FEF768FE386108E0FEF764FE02463B698C
:10352000D31A022B01D9032367E10B4B5B6F03F026
:103530000203002BF0D01BE0094B00221A60FEF7BB
:1035400051FE38610EE0FEF74DFE02463B69D31A8C
:10355000022B07D9032350E1003802400000474204
:10356000800E4742884B5B6F03F00203002BEAD1C9
:103570007B681B6803F00403002B00F09780002396
:10358000FB75814B1B6C03F08053002B0FD1002384
:10359000BB607D4B1B6C7C4A43F0805313647A4BB9
:1035A0001B6C03F08053BB60BB680123FB75774B3A
:1035B0001B6803F48073002B18D1744B1B68734A8B
:1035C00043F480731360FEF70DFE386108E0FEF7E8
:1035D00009FE02463B69D31A022B01D903230CE1F1
:1035E0006A4B1B6803F48073002BF0D07B689B68E8
:1035F000012B06D1644B1B6F634A43F00103136731
:103600001CE07B689B68052B0CD15F4B1B6F5E4AEF
:1036100043F0040313675C4B1B6F5B4A43F00103E9
:1036200013670BE0584B1B6F574A23F001031367D6
:10363000554B1B6F544A23F0040313677B689B6848
:10364000002B15D0FEF7CEFD38610AE0FEF7CAFD6B
:1036500002463B69D31A41F28832934201D90323CF
:10366000CBE0494B1B6F03F00203002BEED014E0BC
:10367000FEF7B8FD38610AE0FEF7B4FD02463B698B
:10368000D31A41F28832934201D90323B5E03E4B6D
:103690001B6F03F00203002BEED1FB7D012B05D144
:1036A000394B1B6C384A23F0805313647B689B6949
:1036B000002B00F0A180344B9B6803F00C03082B17
:1036C0005CD07B689B69022B41D1314B00221A6090
:1036D000FEF788FD386108E0FEF784FD02463B698D
:1036E000D31A022B01D9032387E0274B1B6803F071
:1036F0000073002BF0D17B68DA697B681B6A1A4380
:103700007B685B6A9B011A437B689B6A5B08013B91
:103710001B041A437B68DB6A1B061B4913434B607F
:103720001B4B01221A60FEF75DFD386108E0FEF7D1
:1037300059FD02463B69D31A022B01D903235CE0F1
:10374000114B1B6803F00073002BF0D054E0104BBA
:1037500000221A60FEF746FD386108E0FEF742FDE0
:1037600002463B69D31A022B01D9032345E0064BDD
:103770001B6803F00073002BF0D13DE07B689B6970
:10378000012B07D1012338E00038024000700040CF
:10379000600047421B4B5B68FB607B689B69012BA9
:1037A00028D0FB6803F480027B68DB699A4221D150
:1037B000FB6803F03F027B681B6A9A421AD1FA68E1
:1037C00047F6C07313407A68526A9201934211D14E
:1037D000FB6803F440327B689B6A5B08013B1B0477
:1037E0009A4207D1FB6803F070627B68DB6A1B06B4
:1037F0009A4201D0012300E0002318461837BD4645
:1038000080BD00BF0038024080B584B000AF786052
:1038100039607B68002B01D10123CCE0684B1B6829
:1038200003F007033A689A420CD9654B3A68D2B262
:103830001A70634B1B6803F007033A689A4201D081
:103840000123B8E07B681B6803F00203002B20D043
:103850007B681B6803F00403002B05D0594B9B6861
:10386000584A43F4E05393607B681B6803F00803F5
:10387000002B05D0534B9B68524A43F4604393603E
:10388000504B9B6823F0F0027B689B684D491343C3
:103890008B607B681B6803F00103002B44D07B68BE
:1038A0005B68012B07D1474B1B6803F40033002BE7
:1038B00019D101237FE07B685B68022B03D07B6812
:1038C0005B68032B07D13F4B1B6803F00073002B91
:1038D00009D101236FE03B4B1B6803F00203002B6F
:1038E00001D1012367E0374B9B6823F003027B681B
:1038F0005B68344913438B60FEF774FCF8600AE0A0
:10390000FEF770FC0246FB68D31A41F288329342FC
:1039100001D903234FE02B4B9B6803F00C027B681B
:103920005B689B009A42EBD1254B1B6803F00703B1
:103930003A689A420CD2224B3A68D2B21A70204BA3
:103940001B6803F007033A689A4201D0012332E072
:103950007B681B6803F00403002B08D0194B9B689D
:1039600023F4E0527B68DB68164913438B607B6865
:103970001B6803F00803002B09D0124B9B6823F44B
:1039800060427B681B69DB000E4913438B6000F0CB
:1039900021F802460B4B9B681B0903F00F030A49F1
:1039A000CB5C22FA03F3094A1360094B1B681846E3
:1039B000FEF7D4FB002318461037BD4680BD00BF7C
:1039C000003C02400038024070CA00080800002095
:1039D0000C0000202DE9B04F90B000AF00237B63B6
:1039E0000023FB6300233B630023BB63594B9B68AD
:1039F00003F00C03082B0DD0082B00F2A180002B44
:103A000002D0042B03D09BE0534BBB639BE0534B92
:103A1000BB6398E04F4B5B6803F03F037B634D4B08
:103A20005B6803F48003002B28D04A4B5B689B093A
:103A300000223B627A623B6AC3F308000021474BD5
:103A400003FB01F2002300FB03F31344434AA0FBF2
:103A50000212FA620A46BA62FA6A1344FB627B6B8C
:103A60000022BB61FA61D7E90623D7E90A01FDF715
:103A700013F902460B461346FB6353E0354B5B6874
:103A80009B0900223B617A613B69C3F3080A4FF04E
:103A9000000B52465B464FF000004FF00001590109
:103AA00041EAD261500102460B46B2EB0A0863EBD1
:103AB0000B094FF000024FF000034FEA891343EA6D
:103AC00098634FEA8812B2EB080463EB09054FF0E4
:103AD00000024FF00003EB0043EA5473E200144687
:103AE0001D4614EB0A033B6045EB0B037B604FF074
:103AF00000024FF00003D7E9004529468B0221461A
:103B000043EA915321468A02104619467B6B0022F4
:103B1000BB60FA60D7E90223FDF7BEF802460B4608
:103B20001346FB630B4B5B681B0C03F00303013371
:103B30005B003B63FA6B3B6BB2FBF3F3BB6302E0EE
:103B4000054BBB6300BFBB6B18464037BD46BDE8A5
:103B5000B08F00BF003802400024F40040787D019F
:103B600080B400AF034B1B681846BD465DF8047B6C
:103B7000704700BF0800002080B500AFFFF7F0FFDE
:103B80000246054B9B689B0A03F007030349CB5C85
:103B900022FA03F3184680BD0038024080CA0008AC
:103BA00080B500AFFFF7DCFF0246054B9B685B0B5F
:103BB00003F007030349CB5C22FA03F3184680BDE8
:103BC0000038024080CA000880B582B000AF78603B
:103BD0007B68002B01D1012342E07B6893F84130E0
:103BE000DBB2002B06D17B68002283F84020786886
:103BF000FEF734F97B68242283F841207B681B6838
:103C0000DA687B681B6822F40052DA60786800F09A
:103C100073F97B681B681A697B681B6822F4904201
:103C20001A617B681B685A697B681B6822F02A024C
:103C30005A617B681B68DA687B681B6842F4005233
:103C4000DA607B6800225A647B68202283F8412076
:103C50007B68202283F842207B6800225A6300237D
:103C600018460837BD4680BD80B58AB002AFF860FF
:103C7000B9603B601346FB8000237B61FB6893F8CF
:103C80004130DBB2202B75D1BB68002B02D0FB8802
:103C9000002B01D101236EE0FB6800225A64FB680F
:103CA000212283F84120FEF79DFA7861FB68FA88AB
:103CB0009A84FB68FA88DA84FB689B68B3F5805FB6
:103CC00008D1FB681B69002B04D10023FB61BB6892
:103CD000BB6103E0BB68FB610023BB612EE03B6876
:103CE00000937B6900228021F86800F048F80346C1
:103CF000002B05D0FB68202283F8412003233AE003
:103D0000FB69002B0BD1BB691B881A46FB681B683B
:103D1000C2F308025A60BB690233BB6107E0FB696A
:103D20001A78FB681B685A60FB690133FB61FB680A
:103D3000DB8C9BB2013B9AB2FB68DA84FB68DB8CBC
:103D40009BB2002BCBD13B6800937B6900224021C2
:103D5000F86800F014F80346002B05D0FB68202219
:103D600083F84120032306E0FB68202283F84120EA
:103D7000002300E0022318462037BD4680BD80B5F1
:103D800086B000AFF860B9603B601346FB713BE062
:103D90003B6AB3F1FF3F37D0FEF724FA02463B6897
:103DA000D31A3A6A9A4202D33B6A002B01D1032309
:103DB0003AE0FB681B68DB6803F00403002B23D0A8
:103DC000BB68802B20D0BB68402B1DD0FB681B68D4
:103DD0001B6803F00803082B16D100237B61FB68E6
:103DE0001B681B687B61FB681B685B687B617B6988
:103DF000F86800F01DF8FB6808225A64FB6800228E
:103E000083F8402001230FE0FB681B681A68BB6839
:103E10001340BA689A420CBF01230023DBB21A4652
:103E2000FB799A42B4D0002318461837BD4680BDAE
:103E300080B495B000AF78607B681B680C337B63FF
:103E40007B6B53E8003F3B633B6B23F49073FB6455
:103E50007B681B680C33FA6C3A64FB63F96B3A6C51
:103E600041E80023BB63BB6B002BE5D17B681B687B
:103E700014333B623B6A53E8003FFB61FB6923F06C
:103E80000103BB647B681B681433BA6CFA62BB62C3
:103E9000B96AFA6A41E800237B627B6A002BE5D1AC
:103EA0007B681B6B012B19D17B681B680C33FB6093
:103EB000FB6853E8003FBB60BB6823F010037B64E2
:103EC0007B681B680C337A6CBA617B617969BA696B
:103ED00041E800233B613B69002BE5D17B68202250
:103EE00083F842207B6800221A6300BF5437BD4626
:103EF0005DF8047B704700002DE9B04FC0B000AF03
:103F0000C7F8F400D7F8F4301B681B6923F440505D
:103F1000D7F8F430D968D7F8F4301A6840EA0103CA
:103F20001361D7F8F4309A68D7F8F4301B691A4354
:103F3000D7F8F4305B691A43D7F8F430DB691343E0
:103F4000C7F8F830D7F8F4301B68DB6823F4164163
:103F500021F00C01D7F8F4301A68D7F8F8300B4389
:103F6000D360D7F8F4301B685B6923F44070D7F84E
:103F7000F4309969D7F8F4301A6840EA01035361C4
:103F8000D7F8F4301A688F4B9A4205D0D7F8F4303E
:103F90001A688D4B9A4204D1FFF702FEC7F8FC0065
:103FA00003E0FFF7E9FDC7F8FC00D7F8F430DB6960
:103FB000B3F5004F40F00C81D7F8FC300022C7F871
:103FC000E830C7F8EC20D7E93A4522462B4691184D
:103FD000B9655B41FB65D7E91623214612EB010861
:103FE000294643EB01094FF000024FF000034FEA6E
:103FF000C90343EA58734FEAC802904699462346DC
:1040000018EB0303C7F8E0302B4649EB0303C7F86E
:10401000E430D7F8F4305B680022C7F8D830C7F82E
:10402000DC20D7E936120B46DB183B65134642EB22
:1040300003037B65D7E91423D7E93801FCF72CFE8D
:1040400002460B46614BA3FB02235B091C01D7F818
:10405000FC300022C7F8D030C7F8D420D7E9348923
:1040600042464B469118B9645B41FB64D7E9122381
:10407000414612EB010A494643EB010B4FF00002A7
:104080004FF000034FEACB0343EA5A734FEACA02E8
:1040900092469B4643461AEB0303C7F8C8304B468B
:1040A0004BEB0303C7F8CC30D7F8F4305B68002241
:1040B000C7F8C030C7F8C420D7E930120B46DB1868
:1040C0003B64134642EB03037B64D7E91023D7E933
:1040D0003201FCF7E1FD02460B4611463B4BA3FBC8
:1040E00001235B09642202FB03F3CB1ADB0003F11B
:1040F0003202364BA3FB02235B095B0003F4F87327
:104100001C44D7F8FC300022C7F8B830C7F8BC20F0
:10411000D7E92E8942464B469118B9635B41FB6350
:10412000D7E90E2341465118396349464B417B6319
:104130004FF000024FF00003D7E90CAB5946CB001B
:10414000514643EA51735146CA0010461946034688
:1041500042469B18C7F8B0304B460A4642EB030371
:10416000C7F8B430D7F8F4305B680022C7F8A8303D
:10417000C7F8AC20D7E92A120B46DB18BB621346FE
:1041800042EB0303FB62D7E90A23D7E92C01FCF7D2
:1041900083FD02460B460D4BA3FB02135B09642112
:1041A00001FB03F3D31ADB003233084AA2FB0323DB
:1041B0005B0903F00702D7F8F4301B6822449A60C9
:1041C00006E100BF00100140001401401F85EB51C3
:1041D000D7F8FC300022C7F8A030C7F8A420D7E9F0
:1041E000288942464B46911839625B417B62D7E988
:1041F000082341465418494643EB01054FF000029D
:104200004FF00003EB0043EA5473E20014461D46EE
:104210004346E318C7F898304B4645EB0303C7F80D
:104220009C30D7F8F4305B680022C7F89030C7F8AC
:1042300094204FF000024FF00003D7E924452946AF
:104240008B00214643EA917321468A00D7E9260173
:10425000FCF722FD02460B46604BA3FB02235B09E1
:104260001C01D7F8FC300022C7F88830C7F88C2032
:10427000D7E9228942464B469118B9615B41FB61FF
:10428000D7E9062341465118396149464B417B61C4
:104290004FF000024FF00003D7E904AB5946CB00C2
:1042A000514643EA51735146CA0010461946034627
:1042B00042469B18C7F880304B460A4642EB030340
:1042C000C7F88430D7F8F4305B680022BB67FA6720
:1042D0004FF000024FF00003D7E91E8949468B00DA
:1042E000414643EA917341468A00D7E92001FCF731
:1042F000D3FC02460B461146384BA3FB01235B0956
:10430000642202FB03F3CB1A1B013233334AA2FBB4
:1043100003235B0903F0F0031C44D7F8FC300022B0
:104320003B677A67D7E91C8942464B469118B960CA
:104330005B41FB60D7E90223414651183960494689
:104340004B417B604FF000024FF00003D7E900AB18
:104350005946CB00514643EA51735146CA001046B4
:104360001946034642469B18BB664B460A4642EB3B
:104370000303FB66D7F8F4305B6800223B667A667D
:104380004FF000024FF00003D7E9188949468B002F
:10439000414643EA917341468A00D7E91A01FCF786
:1043A0007BFC02460B460D4BA3FB02135B09642109
:1043B00001FB03F3D31A1B013233084AA2FB032388
:1043C0005B0903F00F02D7F8F4301B6822449A60AF
:1043D00000BF07F58077BD46BDE8B08F1F85EB5164
:1043E0002DE9FF4757EC106B002F0C4619463B4652
:1043F000BBBF07F100431F4600232D230B700D9B0D
:10440000DDF830A0914623F02008BCBF32461646A6
:10441000B8F1460F05D0B8F1450F00D101340221A3
:1044200000E0032103AB019302AB009347EC106B58
:104430005346224601F0CCF9B8F1470F054619D191
:1044400019F0010F0ED000EB0409002200233046C2
:104450003946FCF741FB08B1CDF80C903022039BA4
:104460004B451ED3039B0E9A5B1B2846136004B07A
:10447000BDE8F087B8F1460F00EB0409E5D10378F9
:10448000302B0AD10022002330463946FCF724FBAA
:1044900018B9C4F10104CAF80040DAF800309944B0
:1044A000D3E7591C03911A70D9E7F7B50029BABFB1
:1044B00049422D232B2309290270437029DD0DF178
:1044C00007031D460A271A46B1FBF7F607FB161429
:1044D000303402F8014C0C46632C03F1FF333146B3
:1044E000F1DC3031941E03F8011C411C2346AB4221
:1044F0000AD30DF109039B1AAC4288BF0023023393
:104500000344181A03B0F0BD13F8016B01F8016FF2
:10451000EDE7302330318370C170031DF1E70000F7
:104520002DE9F04F8DB00C46DDF8588016461F4639
:10453000054601F047F8036804931846FBF7A0FE10
:1045400000230A93D8F800300590073323F00703BF
:1045500003F1080294F818A0D4F800B0C8F80020BD
:10456000D3E9008929F000430793CDF81880C4E906
:104570001289DDE906019C4B4FF0FF32FCF7DEFAB1
:1045800070BBDDE90601984B4FF0FF32FCF7B8FA3B
:1045900030BB0022002340464946FCF7A7FA10B181
:1045A0002D2384F84330914A914BBAF1470F94BFC1
:1045B00090469846032323612BF0040323604FF0B9
:1045C0000009009733460BAA2146284600F0D2F98D
:1045D000013040F08D804FF0FF300DB0BDE8F08F1E
:1045E00042464B4640464946FCF7A8FA40B14B4686
:1045F000002BBCBF2D2384F843307E4A7E4BD4E78A
:1046000063680AF0DF0206925A1C3BD106236360FE
:104610004BF480620023226003930AABCDE901A32F
:1046200009AB0093616849EC108B0DF12303284618
:10463000FFF7D6FE069B0999472B804629D1C81C57
:1046400002DB6368994241DDAAF1020A5FFA8AFA45
:104650000139524604F150000991FFF726FF0A9AEA
:104660001318012A8146236102DC2268D20701D592
:10467000013323619DF82330002BA2D02D2384F831
:1046800043309EE7069A472AC2D1002BC0D10123AE
:10469000BDE7BAF1650FDBD9BAF1660F18D1002971
:1046A00063680BDD216113B92268D00702D501339D
:1046B0000B442361A1654FF00009DBE713B92268C1
:1046C000D20701D50233F4E70123F2E74FF0670A7E
:1046D0000A9B994205DB23682161D807EAD54B1C68
:1046E000E7E70029D4BFC1F1020201221344E0E749
:1046F00023685A0507D42369424631462846B847FD
:1047000001302BD167E7BAF1650F40F2DD80D4E9C3
:10471000120100220023FCF7DFF9002833D0374ACA
:10472000012331462846B84701303FF454AFDDE954
:104730000938434502DB2368D8070FD5DDE9042398
:1047400031462846B84701303FF445AF4FF00009E5
:1047500008F1FF3804F11A0AC84509DC23689B07F1
:1047600000F10381E0680B9B9842B8BF184634E71C
:104770000123524631462846B84701303FF42BAF5B
:1047800009F10109E8E7099B002B39DC1B4A0123E9
:1047900031462846B84701303FF41DAFDDE90939FD
:1047A00059EA030302D12368D907D7D5DDE90423E9
:1047B00031462846B84701303FF40DAF4FF0000AAC
:1047C00004F11A0B099B5B42534501DC4B4693E70E
:1047D00001235A4631462846B84701303FF4FBAE24
:1047E0000AF1010AEEE700BFFFFFEF7F88CA000869
:1047F0008CCA000890CA000894CA000898CA000829
:10480000A36DDDF828A05345A8BF5346002B994659
:1048100036DC4FF0000B29EAE97904F11A02A36DA6
:104820000693A3EB09035B4531DC099B9A453ADC0F
:104830002368DA0737D4099BAAEB0309069BAAEB86
:1048400003039945A8BF9946B9F1000F33DC4FF037
:10485000000829EAE97904F11A0B099BAAEB030382
:10486000A3EB090343457FF779AF01235A4631464D
:104870002846B84701303FF4AEAE08F10108ECE736
:10488000424631462846B8470130C2D1A3E601234B
:10489000314628460692B84701303FF49CAE069A4E
:1048A0000BF1010BBBE7DDE9042331462846B8478D
:1048B0000130C0D18FE6069A4B4642443146284625
:1048C000B8470130C3D186E6DDF828A0BAF1010F60
:1048D00001DCDB0736D50123424631462846B8477E
:1048E00001303FF478AEDDE9042331462846B8476D
:1048F00001303FF470AED4E91201002200230AF126
:10490000FF3AFCF7E9F8C0B9534608F10102314615
:104910002846B84701300CD15DE601235A4631469E
:104920002846B84701303FF456AE08F10108D0459B
:10493000F3DB4B4604F15002DFE64FF0000804F1D0
:104940001A0BF4E701234246E1E701234A463146C8
:104950002846B84701303FF43EAE08F10108E3684D
:104960000B995B1A4345F0DCFCE64FF0000804F1BC
:104970001909F4E72DE9F047164698468A680B694D
:10498000DDF820909342B8BF1346336091F843207E
:1049900007460C460AB1013333602368990642BFCB
:1049A000336802333360256815F0060506D104F13B
:1049B000190AE36832689B1AAB4226DC94F843304C
:1049C0002268003B18BF012392062BD404F1430256
:1049D00041463846C84701301ED02368226903F09B
:1049E0000603042B02BFE5683368ED1AA3680CBF09
:1049F00025EAE57500259342C4BF9B1AED180026F1
:104A00001A34B5421AD1002008E00123524641462B
:104A10003846C847013003D14FF0FF30BDE8F0877A
:104A20000135C6E7E1185A1C302081F843002244C2
:104A300094F8451082F843100233C7E70123224659
:104A400041463846C8470130E6D00136D9E7000074
:104A50002DE9FF470F7E0C9E782F914680460C462D
:104A60009A4601F1430207D8622F0AD8002F00F0BE
:104A7000D280582F00F0B98004F1420684F84270C9
:104A80003AE0A7F16303152BF6D801A151F823F002
:104A9000E94A0008FD4A0008794A0008794A0008F6
:104AA000794A0008794A0008FD4A0008794A000856
:104AB000794A0008794A0008794A0008FD4B000845
:104AC000274B0008B74B0008794A0008794A0008CC
:104AD0001F4C0008794A0008274B0008794A000853
:104AE000794A0008BF4B000833681A1D1B68326002
:104AF00004F1420684F8423001239DE033682068C7
:104B0000191D3160060601D51D6803E04506FBD579
:104B1000B3F90050002D03DA2D236D4284F84330A1
:104B200059480A2311E021683368080653F8045BEA
:104B300002D4490648BFADB26F2F5348336014BF4B
:104B40000A230823002184F843106668A660002E1B
:104B5000A2BF216821F0040121600DB9002E4BD0C5
:104B60001646B5FBF3F103FB1157C75D06F8017D4F
:104B70002F46BB420D46F4D9082B0BD12368DF0723
:104B800008D5236961689942DEBF302306F8013CED
:104B900006F1FF36921B2261CDF800A04B4603AA16
:104BA00021464046FFF7E6FE01304AD14FF0FF3084
:104BB00004B0BDE8F087236843F020032360334846
:104BC000782784F84570236831681F0651F8045B24
:104BD00002D45F0648BFADB23160D90744BF43F08D
:104BE000200323601DB11023ACE72748E9E72368C1
:104BF00023F020032360F6E71646BDE733682568F7
:104C00006169181D30602E061B6801D5196002E02D
:104C10006806FBD51980002323611646BCE733687C
:104C20001A1D32601E68626800213046FBF7D8FA10
:104C300008B1801B606063682361002384F84330FF
:104C4000AAE72369324649464046D0470130ADD0F5
:104C500023689B0713D4E068039B9842B8BF1846AB
:104C6000A6E70123324649464046D04701309DD051
:104C70000135E36803995B1AAB42F2DCEBE70025F0
:104C800004F11906F5E700BF9ACA0008ABCA00088C
:104C90002DE9F04F87B0174603938B685A1EB2F583
:104CA000AE7F81BF6FF4AE7503EB050B40F25D1371
:104CB0008B600B680A464FF0000543F4F06342F83E
:104CC0001C3BCDE9045580460C4698BF4FF0000BC5
:104CD00001921646AA46A9460295A26852B13B68BF
:104CE0001B784E2B64D8402B3CD8A3F12B01C8B2C3
:104CF0000E283AD9B9F1000F03D0236823F480734A
:104D000023600AF1FF3ABAF1010F00F21781019B0B
:104D10009E4200F20881012007B0BDE8F08FA3F1A8
:104D200061020D2AE6D801A151F822F0734E000865
:104D3000F54C0008F54C0008F54C0008D34E00086F
:104D4000AB4E0008F54C0008F54C0008814E0008F9
:104D5000F54C0008F54C0008F54C0008F54C00082F
:104D6000394E0008A3F14102DBE70E29C2D801A0A9
:104D700050F821F0294E0008F54C0008294E000893
:104D8000BF4E0008F54C0008D14D00080F4E00083A
:104D90000F4E00080F4E00080F4E00080F4E00087F
:104DA0000F4E00080F4E00080F4E00080F4E00086F
:104DB0006E2B09D8602BB2D8542B7BD0592B99D1AC
:104DC000072D97D108252CE0742B73D0792BF6E7AB
:104DD0002168C8051BD521F08001216009F1010976
:104DE000BBF1000F03D001320BF1FF3BA260A368BF
:104DF000013BA3602369013323617B68013B002BE6
:104E00007B6040F387803B6801333B6065E71AEBCA
:104E100005017FF46FAF226822F4C07222600D4654
:104E20008A4606F8013BE2E7226810067FF562AF8A
:104E300022F080022260F4E7BAF1000F0ED1B9F13E
:104E4000000F0ED1226802F4E061B1F5E06F08D1E5
:104E500022F4F06222604FF0010AE2E7BAF1020F99
:104E600055D0012D02D0042D7FF444AF0135EDB2B1
:104E7000D7E7BAF1010F7FF43DAF4FF0020AD0E758
:104E80007DB9B9F1000F7FF438AF226802F4E06118
:104E9000B1F5E06F40F0088122F4F0622260012554
:104EA000BFE7032DE2D0052DDEE7022D7FF422AF10
:104EB0000325B6E7062D7FF41DAF0725B1E722686D
:104EC00091057FF517AF22F420722260CDF808908B
:104ED000A7E7226802F4A061B1F5806F06D0500503
:104EE0007FF508AFB9F1000F00F0DE80910558BFE3
:104EF000029922F4F06258BFA9EB010142F4C0729A
:104F000058BFCDE9041622604FF0000989E74FF041
:104F1000030A86E7D4F8803139464046984700288E
:104F20003FF4DBAEE6E6D4F87C3116F8011D3A46D4
:104F3000404698472369013B2361E8E66B1E062B38
:104F400024D8022D36D8019B9E427FF6E4AED4F8D9
:104F50007C3116F8011D3A46404698472369013BCB
:104F60002361F0E7D4F87C311BF8011D3A46404636
:104F700098472369013B23610AF1FF3A5FFA8AFAF5
:104F8000BAF1020FEED1033DEDB2761B2368DA05CC
:104F900030D55B0511D5019B9E427FF6BCAED4F89F
:104FA0007C3116F8011D3A46404698472369013B7B
:104FB0002361F0E7AA46B346DEE716F8011C236931
:104FC000652903F1FF3306F1FF3523610CD0452934
:104FD0000AD0D4F87C313A4640469847236916F8FF
:104FE000021C013BB51E2361D4F87C313A46404691
:104FF00098472E46226812F0100201D000208BE65E
:105000003270236803F4C063B3F5806F1CD1029B38
:105010004B45A3EB090223D101990022404602F03F
:105020004FFD039B21681B6811F0020F57EC106BBA
:1050300003F104021FD003990A601B68C3E90067EB
:10504000E3680133E360D9E7049B002BE4D00599C2
:105050000A230131404602F0B3FD049B059EC21AAB
:1050600004F26F139E4228BF04F5B776104930460C
:1050700000F088F9D0E711F0040F03990A60DCD141
:105080001D6832463B4630463946FBF757FD28B18E
:10509000084800F00FFB85ED000AD1E7304639469D
:1050A000FBF7AAFD2860CBE74FF0000929E600BF17
:1050B000BCCA000855CE0008002310B50446C0E95C
:1050C0000033C0E90433836081814366C281836118
:1050D000194608225C3000F06DFA0D4B63620D4BEF
:1050E000A3620D4BE3620D4B23630D4B24629C4284
:1050F00006D003F16802944202D0D0339C4205D11D
:1051000004F15800BDE8104000F0D0BA10BD00BF57
:10511000C5530008E75300081F5400084354000813
:10512000B4060020024A0349034800F069B800BFF2
:1051300014000020018200082400002041680C4B6C
:10514000994210B5044601D003F05AF8A168094B02
:10515000994202D0204603F053F8E168064B994289
:1051600004D02046BDE8104003F04AB810BD00BF8F
:10517000B40600201C0700208407002010B50B4B4C
:105180000B4C0C4A1A60204600220421FFF794FFC2
:1051900004F1680001220921FFF78EFF04F1D0001D
:1051A0000222BDE810401221FFF786BFEC07002065
:1051B000B406002025510008014800F078BA00BF6D
:1051C000F5070020014800F073BA00BFF507002082
:1051D00010B50446FFF7F0FF236A1BB1BDE810408D
:1051E000FFF7F0BF044B2362044B1B68002BF5D183
:1051F000FFF7C4FFF2E700BF3D510008EC070020B5
:105200002DE9F8430746884614460026D4E901955F
:10521000B9F1010905D52468002CF7D13046BDE865
:10522000F883AB89012B07D9B5F90E30013303D0D0
:1052300029463846C04706436835E9E70FB407B545
:10524000064904AB086853F8042B8168019302F007
:105250003BFE03B05DF804EB04B070472000002073
:10526000036A70B5846805460E460BB9FFF7B0FFB8
:10527000636EDB0705D4A389980502D4A06D00F006
:1052800016FAA389190702D52369002B35D12146C7
:10529000284600F039F980B34FF0FF35636EDA0726
:1052A00005D4A3899B0502D4A06D00F001FA28461D
:1052B00070BD002B04DAA2699A4217DC0A2915D0C6
:1052C00023685A1C22601970A36816F8011F013B5D
:1052D000A3600029EDD1002B11DA22460A212846CD
:1052E00000F0D4F80130D7D00A25D7E72246284667
:1052F00000F0CCF80130E7D1CEE7013EE4E72368C7
:105300005A1C22600A221A70EEE70000024B014686
:105310001868FFF7A5BF00BF200000200CB430B50F
:10532000174B0C1E1D689DB008DA8B232B604FF0C5
:10533000FF301DB0BDE8304002B070474FF402733B
:10534000ADF8143014BF04F1FF33234604930793E0
:105350004FF6FF7302900690ADF81630209A21ABFD
:1053600002A92846019302F089FC431CBCBF8B2391
:105370002B60002CDDD0029B00221A70D9E700BF01
:10538000200000200EB400B59CB01DAB029006902A
:105390006FF00041094807910491094953F8042B23
:1053A00005910068019302A902F068FC029B0022AB
:1053B0001A701CB05DF804EB03B0704720000020A9
:1053C0000802FFFF10B50C46B1F90E1000F020F9ED
:1053D0000028ABBF636DA3891B1823F48053ACBFB7
:1053E0006365A38110BD2DE9F0411F468B89DB0564
:1053F00005460C46164605D5B1F90E1002230022CB
:1054000000F0F4F8A389B4F90E1023F48053A381BB
:1054100032463B462846BDE8F04100F00BB910B5D6
:105420000C46B1F90E1000F0E1F8431CA38915BF3A
:10543000606523F4805343F48053A38118BFA38194
:1054400010BDB1F90E1000F0C1B8000000B59BB05E
:10545000009104916FF0004105910291054903917B
:10546000694602F00BFC009B00221A701BB05DF82D
:1054700004FB00BF0802FFFF13460A46014602482C
:105480000068FFF7E3BF00BF20000020F8B50E461C
:105490001446054618B1036A0BB9FFF799FEA369D4
:1054A000A360A3891A0701D5236943B92146284679
:1054B00000F02AF818B14FF0FF373846F8BD2368DE
:1054C0002269981A6369F6B28342374605DC2146A1
:1054D000284602F095FE0028EDD1A368013BA360A9
:1054E00023685A1C22601E706269431C9A4204D0D1
:1054F000A389DB07E1D50A2EDFD12146284602F039
:105500007FFE0028D9D0D6E738B5294B0546186864
:105510000C4618B1036A0BB9FFF75AFEB4F90C3008
:10552000190722D4DA0607D409222A6043F040037F
:10553000A3814FF0FF3033E0580712D5616B41B1C2
:1055400004F14403994202D0284600F005FF0023ED
:105550006363A38923F02403A38100236360236989
:105560002360A38943F00803A38123694BB9A3896E
:1055700003F42073B3F5007F03D02146284602F0E0
:105580008DFEB4F90C3013F001020AD00022A260A3
:1055900062695242A261226942B913F08000C5D10A
:1055A00038BD990758BF6269A260F4E70020F7E7A9
:1055B0002000002002440346934200D1704703F8C4
:1055C000011BF9E7004870476001002038B5064D1F
:1055D0000023044608462B60FCF7F7FC431C02D16D
:1055E0002B6803B1236038BDF007002038B5074DA4
:1055F00004460846114600222A601A46FCF70CFDB4
:10560000431C02D12B6803B1236038BDF007002092
:1056100038B5074D04460846114600222A601A464E
:10562000FCF7B6FC431C02D12B6803B1236038BDE4
:10563000F007002038B5074D044608461146002201
:105640002A601A46FBF7D6FC431C02D12B6803B133
:10565000236038BDF0070020014B1868704700BF79
:105660002000002070B50D4D0D4C641BA4100026C9
:10567000A64209D10B4D0C4C03F0E0FA641BA410B8
:105680000026A64205D170BD55F8043B9847013667
:10569000EEE755F8043B98470136F2E7C0CE000824
:1056A000C0CE0008C0CE0008C4CE000870477047C6
:1056B000704700009FED010A704700BF0000C07FE7
:1056C0002DE9F74F03690C69A34207467EDB013CD5
:1056D00001F11408A30000F11405009305EB840305
:1056E000019358F8243055F8242001339A4208EBEE
:1056F0008409B2FBF3F62ED34FF0000AC446AE463F
:10570000D3465CF8043B98B206FB00A0020C1B0CCD
:1057100006FB0323DEF8002080B292B2121A5A442C
:10572000DEF800004FEA134A9BB2C3EB224303EBBF
:10573000104392B242EA0342E1454EF8042B4FEA8D
:10574000234BDED2009BEB582BB9019B043B9D42BF
:105750001A462FD33C61384601F0C2F9002825DBF8
:105760002946002058F8042BD1F800C01FFA82FE09
:105770001FFA8CF3A3EB0E030344120CC2EB23427B
:1057800002EB1C429BB243EA0243C14541F8043B91
:105790004FEA2240E6D255F8242005EB840322B9D3
:1057A000043B9D421A460BD33C610136304603B0A0
:1057B000BDE8F08F1268043B002ACBD1013CC6E75C
:1057C0001268043B002AEFD1013CEAE70020EEE733
:1057D0002DE9F04FC76999B08DED020B55EC104BD8
:1057E000229E099183460E9213937FB9102000F0F8
:1057F000FDFD0246CBF81C0020B9A74BEF21A748BE
:1058000002F0FEFDC0E901770760C760DBF81C30DD
:10581000196859B15A684A60012393408B60584611
:1058200000F0DAFEDBF81C3000221A602B1EB9BF34
:1058300023F00043039300233360039F984BBCBFC6
:1058400001223260BB4312D1139A42F20F731360EC
:10585000C7F31303234300F04D85239BDFF854A2C5
:10586000002B00F04F850AF1030300F049BD9DEDC8
:10587000027B002251EC170B00238DED0C7BFBF714
:105880002BF9804658B1139A01231360239B13B15F
:10589000239A844B1360DFF820A200F033BD9DED06
:1058A0000C0B16AA17A9584601F03AFAC7F30A5684
:1058B0008146002E77D00D9BCDF85080C3F31303A3
:1058C000DDE90C0143F07F5343F44013A6F2FF36A9
:1058D00019460022744BFAF7DFFC69A3D3E90023D1
:1058E000FAF792FE68A3D3E90023FAF7D7FC04463F
:1058F00030460D46FAF71EFE65A3D3E90023FAF7FA
:1059000083FE02460B4620462946FAF7C7FC0446AA
:105910000D46FBF729F900220746002320462946B9
:10592000FBF7E4F840B13846FAF704FE22462B466E
:10593000FBF7D2F800B9013F162F51D85B4B03EBB0
:10594000C703D3E90023DDE90C01FBF7CFF80028FA
:1059500048D0013F00231293169B9B1B5A1E44BF45
:10596000C3F101080023089254BF4FF000080893C8
:10597000002F39DB089B0F973B44089300230A93C1
:10598000099B092B64D8052BC4BF043B0993099BD1
:10599000A3F10203CCBF00240124032B63D8DFE86A
:1059A00003F02A373555DDE916631E4406F232430B
:1059B000202BC1BFC3F140039F4006F2124324FADB
:1059C00003F3D6BFC3F1200347EA030004FA03F050
:1059D000FAF7A0FD0122A1F1F873013E149277E7D6
:1059E0000123B8E71290B7E77B420A930023A8EBA4
:1059F00007080F93C4E700230B930E9B002B35DCA5
:105A00000123009307931A460E920BE00123F3E75C
:105A100000230B930E9BFB1800930133012B07937C
:105A2000B8BF0123DBF81C000021042202F1140599
:105A30009D421FD94160584600F08EFD82460028E5
:105A40003CD11B4B024640F2AF11D8E60123E0E700
:105A50000124002309930B944FF0FF330093079325
:105A600000221223D0E701230B93F5E70E9B00934E
:105A70000793D7E701315200D8E700BFAFF30080AA
:105A800061436F63A787D23FB3C8608B288AC63F44
:105A9000FB799F501344D33FCECA0008E5CA0008E3
:105AA0000000F07F99CA00080000F83FE0CB000832
:105AB0003DCB0008CACA000898CA0008DBF81C30B1
:105AC0001860079B0E2B00F2A480002C00F0A18030
:105AD000002F33DDAD4B07F00F0203EBC20393ED54
